S01D00006A31325F67726164756174696F6E5F6D61737465722E73726563C2
S11300000C942A000C9434000C9434000C943400A6
S11300100C9434000C9434000C9434000C9434008C
S11300200C9434000C9434000C9434000C9434007C
S11300300C9434000C9434000C9434000C9434006C
S11300400C9434000C9434000C9434000C9434005C
S11300500C94340011241FBECFE5D8E0DEBFCDBF21
S11300600E9400010C945E010C940000442379F179
S1130070413009F05FC0813079F028F08230A9F076
S11300808330E1F008952AB381E090E001C0880F45
S11300906A95EAF7822B2CC027B381E090E001C077
S11300A0880F6A95EAF7822B2EC024B381E090E092
S11300B001C0880F6A95EAF7822B30C021B381E032
S11300C090E001C0880F6A95EAF7822B32C0813034
S11300D089F028F08230C9F0833011F108952AB3F1
S11300E081E090E001C0880F6A95EAF78095822349
S11300F08ABB089527B381E090E001C0880F6A9518
S1130100EAF78095822387BB089524B381E090E0C9
S113011001C0880F6A95EAF78095822384BB08950D
S113012021B381E090E001C0880F6A95EAF78095D9
S1130130822381BB0895442379F1413009F05FC0E3
S1130140813079F028F08230A9F08330E1F008950D
S11301502BB381E090E001C0880F6A95EAF7822B07
S11301602CC028B381E090E001C0880F6A95EAF7BB
S1130170822B2EC025B381E090E001C0880F6A95E0
S1130180EAF7822B30C022B381E090E001C0880FEF
S11301906A95EAF7822B32C0813089F028F08230E8
S11301A0C9F0833011F108952BB381E090E001C0D0
S11301B0880F6A95EAF7809582238BBB089528B34C
S11301C081E090E001C0880F6A95EAF78095822368
S11301D088BB089525B381E090E001C0880F6A953B
S11301E0EAF78095822385BB089522B381E090E0ED
S11301F001C0880F6A95EAF78095822382BB08952F
S11302000E9447012FEF80E792E021508040904008
S1130210E1F700C000000E945A01C82F8BEC8C0F3C
S11302208430C8F70E94260140E064E081E00E9427
S11302309B002FEF89E698E1215080409040E1F740
S113024000C000008C2F0E944201E5CF41E064E031
S113025081E00E94360041E065E081E00E943600C2
S113026040E066E081E00E94360041E067E081E022
S11302700E94360041E064E081E00E949B0083E537
S11302808DB908958FB9779BFECF8FB1089540E063
S113029060E083E00E94360041E061E083E00E9478
S11302A036008AB188618AB980B5866880BD83E3E7
S11302B089B908955F9BFECF8CB10895F894FFCF60
S9030000FC
