:100000000C942A000C9434000C9434000C943400AA
:100010000C9434000C9434000C9434000C94340090
:100020000C9434000C9434000C9434000C94340080
:100030000C9434000C9434000C9434000C94340070
:100040000C9434000C9434000C9434000C94340060
:100050000C94340011241FBECFE5D8E0DEBFCDBF25
:100060000E941E010C9460010C94000041E060E0CD
:1000700082E00C94450041E060E082E00C94AA002C
:1000800040E060E082E00C94AA00442379F1413022
:1000900009F05FC0813079F028F08230A9F0833018
:1000A000E1F008952AB381E090E001C0880F6A95DD
:1000B000EAF7822B2CC027B381E090E001C0880FC3
:1000C0006A95EAF7822B2EC024B381E090E001C04C
:1000D000880F6A95EAF7822B30C021B381E090E067
:1000E00001C0880F6A95EAF7822B32C0813089F00F
:1000F00028F08230C9F0833011F108952AB381E0ED
:1001000090E001C0880F6A95EAF7809582238ABB48
:10011000089527B381E090E001C0880F6A95EAF75F
:100120008095822387BB089524B381E090E001C0CD
:10013000880F6A95EAF78095822384BB089521B3DE
:1001400081E090E001C0880F6A95EAF780958223EC
:1001500081BB0895442379F1413009F05FC08130BB
:1001600079F028F08230A9F08330E1F008952BB3C4
:1001700081E090E001C0880F6A95EAF7822B2CC0DD
:1001800028B381E090E001C0880F6A95EAF7822BDE
:100190002EC025B381E090E001C0880F6A95EAF790
:1001A000822B30C022B381E090E001C0880F6A95B5
:1001B000EAF7822B32C0813089F028F08230C9F012
:1001C000833011F108952BB381E090E001C0880FD6
:1001D0006A95EAF7809582238BBB089528B381E066
:1001E00090E001C0880F6A95EAF78095822388BB6A
:1001F000089525B381E090E001C0880F6A95EAF781
:100200008095822385BB089522B381E090E001C0F0
:10021000880F6A95EAF78095822382BB089541E0B2
:1002200062E082E00C94450041E062E082E00C94E0
:10023000AA0040E062E082E00C94AA000E940F0154
:100240000E9436000E94440180E00E945B012FEF73
:1002500030E792E0215030409040E1F700C00000CC
:10026000853319F40E941401EFCF863319F40E94EC
:100270001901EACF873319F40E943B00E5CF883398
:1002800019F70E944000E0CF40E064E081E00E9466
:10029000450040E065E081E00E94450041E066E005
:1002A00081E00E94450040E067E081E00E94450057
:1002B00080E48DB908958FB9779BFECF8FB10895F3
:0402C000F894FFCFE0
:00000001FF
